:020000040800F2
:100000001804002045010008C30A0008010A00087E
:10001000C10A0008B1010008850B000800000000BB
:10002000000000000000000000000000E70A0008D7
:10003000B301000800000000E50A0008E90A000812
:100040005F0100085F0100085F0100085F01000810
:100050005F0100085F0100085F0100085F01000800
:100060005F0100085F0100085F0100085F010008F0
:100070005F0100085F0100085F0100085F010008E0
:100080005F0100085F0100085F0100085F010008D0
:100090005F0100085F0100085F0100085F010008C0
:1000A0005F0100085F0100085F0100085F010008B0
:1000B0005F0100085F0100085F0100085F010008A0
:1000C0005F0100085F0100085F0100085F01000890
:1000D0005F0100085F0100085F0100085F01000880
:1000E0005F0100085F0100085F0100085F01000870
:1000F0005F0100085F0100085F0100085F01000860
:100100005F0100085F0100085F0100085F0100084F
:100110005F0100085F0100085F0100085F0100083F
:100120005F0100085F0100085F0100085F0100082F
:10013000DFF80CD000F02AF800480047A50B0008B3
:10014000180400200648804706480047FEE7FEE7FF
:10015000FEE7FEE7FEE7FEE7FEE7FEE7FEE7FEE777
:100160003D0B000831010008D2B201E000F8012B7C
:10017000491EFBD270470022F6E710B513460A4627
:1001800004461946FFF7F0FF204610BD064C074D08
:1001900006E0E06840F0010394E807009847103457
:1001A000AC42F6D3FFF7C8FFA80C0008C80C000843
:1001B000FEE7704770B5044600F010F90546601C74
:1001C00002D004480078044400F008F9401BA04223
:1001D000FAD370BD040000202DE9F84FDFF8B8A174
:1001E00000220AF1040B144601274FF00F090BF10E
:1001F000040E00BF0B6807FA04F52B40AB4274D124
:10020000DFF898C14E68A6EB0C0866452BD00DDCD4
:10021000032E34D005DC36B3012E19D0022E2FD197
:100220001BE0112E16D0122E2AD119E0B8F5881F26
:1002300019D006DCB8F5803F15D0B8F5801F1FD166
:1002400011E0B8F5001F0ED0B8F5041F18D10AE070
:10025000CA6815E0CA68121D12E0CA6808320FE0C9
:10026000CA680C320CE08A682AB1012A4FF00802F1
:1002700003D0456104E0042202E0056100E00022B1
:10028000FF2B01D8064601E000F104064FEA840581
:1002900001D9A5F12005D6F800C009FA05F82CEA25
:1002A000080C02FA05F54CEA050CC6F800C04D68CA
:1002B000ED006AD53A4DAE6946F00106AE61AD6912
:1002C00024F0030605F001050095364D06EB050CFC
:1002D000DCF80850A6074FEA167809FA08F6B54385
:1002E000314EB04202D100261AE04EE02F4EB0420D
:1002F00001D1012614E02E4EB04201D102260FE0BA
:100300002C4EB04201D103260AE02B4EB04201D15F
:10031000042605E0294EB04201D1052600E006265C
:1003200006FA08F62E43CCF808604D68DAF800604B
:10033000ED03554601D51E4300E09E432E604D68F7
:10034000AD0305D5DBF800601E43CBF8006004E088
:10035000DBF800509D43CBF800504D68DEF800609C
:10036000ED02754601D51E4300E09E432E604D68A8
:10037000AD0205D5084D0C352E681E432E6004E0F5
:10038000054E0C3635689D433560641C102CFFF417
:1003900031AFBDE8F88F00000004014000001110EB
:1003A000001002400000014000080140000C014024
:1003B000001001400014014000180140001C0140E1
:1003C0008068084000D001207047C2684A40C2607F
:1003D00070470AB1016170470904FBE70148806872
:1003E0007047000004000020024881680278114430
:1003F0008160704704000020074810B5016841F093
:1004000010010160032000F067F8002000F006F8FA
:1004100000F024F8002010BD0020024070B50D4D02
:1004200004464FF47A712878B1FBF0F00A49096864
:10043000B1FBF0F000F0D0FA48B9102C07D200223E
:100440002146501E00F028F800206C6070BD01208D
:1004500070BD000004000020100000200C4808B50A
:10046000816941F001018161816901F0010100911F
:10047000C16941F08051C161C06900F080500090B5
:100480000448416821F0E06141F00071416008BD1D
:100490000010024000000140F0B40E4B1B680C46F7
:1004A000C3F30223C3F10705042D00D90425191D48
:1004B000072901D2002300E0DB1E012606FA05F120
:1004C000491E214099409E40761E16403143F0BCA3
:1004D00000F0F8BA0CED00E0064900F007020868E9
:1004E0004FF6FF03184040EA0220034A1043086019
:1004F000704700000CED00E00000FA052DE9F04720
:10050000DFF8548105460E46D8F8000000F00700D9
:10051000B0420CD2D8F8001021F007013143C8F8DE
:100520000010D8F8000000F00700B0426FD1286832
:100530004A4C810712D5400703D5606840F4E0605B
:1005400060602878000703D5606840F46050606000
:100550006068A96820F0F000084360602878C00750
:1005600044D06868012816D02168022816D089076F
:1005700000294CDA616821F0030101436160FFF753
:100580002DFF6968074641F2883001290ED0022903
:10059000814618D026E021688903E9E78901E7E769
:1005A000FFF71CFFC11B494501D918E0814660686F
:1005B000C0F381000128F3D118E000BFFFF70EFF60
:1005C000C11B49450BD86068C0F381000228F5D1F2
:1005D0000CE000BFFFF702FFC11B494502D9032011
:1005E000BDE8F087606810F00C0FF3D1D8F8001068
:1005F000404601F00701B1420BD9016821F0070123
:1006000031430160006800F00700B04201D00120D2
:10061000E6E72878400705D56068E96820F4E060DF
:10062000084360602878000706D56068296920F4CF
:10063000605040EAC100606000F016F86168084A46
:10064000C1F30311515CC840064908600020FFF760
:10065000E5FE0020C4E70000002002400010024038
:10066000980C00081000002012A185B00FC98DE879
:100670000F0014A0144A006804905168134801F058
:100680000C03042B10D0082B0ED1C1F38343C903F4
:100690001DF803000AD5516804AAC1F34041515C1A
:1006A0000A4A5043B0FBF1F005B07047084948438F
:1006B000FAE7000002030405060708090A0B0C0DFF
:1006C0000E0F1010010200000010024000127A000C
:1006D00000093D002DE9F84F04460078B94DC007E8
:1006E00048D06868C0F38100012807D06868C0F36B
:1006F0008100022809D16868C00306D528688003F4
:1007000038D5606800286FD034E06068B0F5803F6D
:100710000BD010B1B0F5A02F11D0286820F4803094
:100720002860286820F4802002E0286840F48030A7
:100730002860606888B1FFF751FE064609E0286826
:1007400040F480202860F0E7FFF748FE801B642813
:1007500075D828688003F7D50CE0FFF73FFE064602
:1007600005E000BFFFF73AFE801B6428F0D8286838
:100770008003F7D42078944E80074FF001094FF0A2
:1007800000083BD5686810F00C0F07D06868C0F30C
:100790008100022809D16868C00306D42868800750
:1007A00014D5206901281FD110E02069B0B1C6F826
:1007B0000090FFF713FE074605E000BFFFF70EFEAF
:1007C000C01B0228C4D828688007F7D5286861694B
:1007D00020F0F80040EAC10028600FE0C6F8008071
:1007E000FFF7FCFD074606E0E9E000BFFFF7F6FD76
:1007F000C01B022823D828688007F7D42078000778
:100800002CD57248A169D9B1C0F80090FFF7E6FD78
:10081000074604E0FFF7E2FDC01B02280FD8686A14
:100820008007F7D56A484FF4FA510068B0FBF1F041
:10083000009000BF0098411E0091FAD20EE080E0C7
:10084000C0F80080FFF7CAFD074604E0FFF7C6FDC9
:10085000C01B022875D8686A8007F7D42078400743
:1008600060D5E8690027C00008D4E86940F08050EE
:10087000E861E869012700F0805000905548016860
:10088000C90513D40168834641F480710160FFF704
:10089000A5FD824606E000BFFFF7A0FDA0EB0A0021
:1008A00064284ED8DBF80000C005F5D5E0680128C3
:1008B0000AD008B1052813D0286A20F00100286268
:1008C000286A20F0040002E0286A40F00100286253
:1008D000E06841F2883B98B1FFF780FD82460BE06B
:1008E000286A40F004002862EEE700BFFFF776FDBB
:1008F000A0EB0A0159455AD8286A8007F6D50CE0C2
:10090000FFF76CFD824605E0FFF768FDA0EB0A01EA
:1009100059454CD8286A8007F6D41FB1E86920F001
:100920008050E861E06988B36968C1F381010229F8
:1009300045D00228C6F8608004D0FFF74FFD04467A
:1009400038E034E0FFF74AFD074604E0FFF746FDD4
:10095000C01B02282BD828688001F7D4206AB0F584
:10096000803F05D16868A16820F4003008436860C2
:10097000D4E908010843696821F4741108436860E8
:10098000C6F86090FFF72AFD044606E015E000BFB8
:10099000FFF724FD001B022809D828688001F7D53D
:1009A0000BE000BFFFF71AFD001B022802D903204D
:1009B000BDE8F88F28688001F4D40020F8E7012012
:1009C000F6E700000010024000004242800442426C
:1009D000100000200070004010B5401EB0F1807F74
:1009E00001D3012010BD4FF0E02460610F2160179A
:1009F00000F068F80020A06107202061002010BDF1
:100A0000FEE700002DE9F04385B00024294800945A
:100A1000019402940394816941F01001816181691C
:100A200001F010010491816941F00801816181693F
:100A300001F008010491816941F00401816180693C
:100A4000DFF8748000F00400049001222321404666
:100A5000FFF7BFFCDFF864904FF48077002239463F
:100A60004846FFF7B6FC7801CDE9000469464846E0
:100A70000294FFF7B1FB232001250326CDE90005F1
:100A8000CDE9024669464046FFF7A6FBE803CDE9FB
:100A90000004694640460294FFF79EFB00970396C8
:100AA000CDE9015469464846FFF796FB05B0BDE81D
:100AB000F083000000100240000C014000100140D3
:100AC000FEE770470907090E002806DA00F00F005C
:100AD00000F1E02080F8141D704700F1E02080F85C
:100AE0000014704770477047FFF77EBC30B58FB079
:100AF00028216846FFF73FFB14210AA8FFF73BFBBC
:100B00000121080400240491CDE90010CDE9080476
:100B10000294022507956846FFF7DCFD0F20CDE91A
:100B20000A0580200C904FF4C060CDE90D0400212F
:100B30000AA8FFF7E3FC0FB030BD00000D480168C4
:100B400041F00101016041680B4A114041600168B8
:100B50000A4A11400160016821F480210160416866
:100B600021F4FE0141604FF41F0181600449C0037C
:100B700008607047001002400000FFF8FFFFF6FE1B
:100B800008ED00E0FEE702E008C8121F08C1002AD5
:100B9000FAD170477047002001E001C1121F002AFE
:100BA000FBD17047FFF728FCFFF7A0FFFFF72AFFF4
:100BB000364F374D374C4FF400584FF40049032659
:100BC0004FF47A7A41463846FFF7FAFB38B14FF4D2
:100BD00080713846FFF7F9FB5046FFF7EBFA4946BC
:100BE0002846FFF7EDFB0028ECD02078B0FBF6F1AB
:100BF00006FB1101E9B1B0FBF6F106FB1101012979
:100C000029D0B0FBF6F106FB11000228DAD101224F
:100C100020212846FFF7DDFB012211462846FFF779
:100C2000D8FB012202212846FFF7D3FB0022022134
:100C300022E0012220212846FFF7CBFB01221146AA
:100C40002846FFF7C6FB012202212846FFF7C1FB19
:100C50000022202110E0012220212846FFF7B9FBC5
:100C6000012211462846FFF7B4FB01220221284643
:100C7000FFF7AFFB002201212846FFF7AAFB2078EF
:100C8000401C20705046FFF795FA9BE7001001408A
:100C9000000C0140000000200000000000000000E7
:100CA0000102030406070809C80C00080000002020
:100CB00014000000860B0008DC0C00081400002063
:100CC00004040000960B0008000000000100000072
:0C0CD000100000000000000000A24A0418
:0400000508000131BD
:00000001FF
